{
    "contractName": "Election",
    "abi": [
        {
            "inputs": [
                {
                    "internalType": "string",
                    "name": "electionTitle",
                    "type": "string"
                }
            ],
            "payable": false,
            "stateMutability": "nonpayable",
            "type": "constructor"
        },
        {
            "constant": true,
            "inputs": [
                {
                    "internalType": "uint256",
                    "name": "",
                    "type": "uint256"
                }
            ],
            "name": "m_candidates",
            "outputs": [
                {
                    "internalType": "string",
                    "name": "name",
                    "type": "string"
                },
                {
                    "internalType": "string",
                    "name": "surname",
                    "type": "string"
                },
                {
                    "internalType": "bytes32",
                    "name": "id",
                    "type": "bytes32"
                },
                {
                    "internalType": "uint256",
                    "name": "votes",
                    "type": "uint256"
                }
            ],
            "payable": false,
            "stateMutability": "view",
            "type": "function"
        },
        {
            "constant": true,
            "inputs": [
                {
                    "internalType": "address",
                    "name": "voter",
                    "type": "address"
                }
            ],
            "name": "isVoterRegistered",
            "outputs": [
                {
                    "internalType": "bool",
                    "name": "",
                    "type": "bool"
                }
            ],
            "payable": false,
            "stateMutability": "view",
            "type": "function"
        },
        {
            "constant": true,
            "inputs": [
                {
                    "internalType": "address",
                    "name": "voter",
                    "type": "address"
                }
            ],
            "name": "hasVoterAlreadyVoted",
            "outputs": [
                {
                    "internalType": "bool",
                    "name": "",
                    "type": "bool"
                }
            ],
            "payable": false,
            "stateMutability": "view",
            "type": "function"
        },
        {
            "constant": true,
            "inputs": [],
            "name": "getCandidates",
            "outputs": [
                {
                    "components": [
                        {
                            "internalType": "string",
                            "name": "name",
                            "type": "string"
                        },
                        {
                            "internalType": "string",
                            "name": "surname",
                            "type": "string"
                        },
                        {
                            "internalType": "bytes32",
                            "name": "id",
                            "type": "bytes32"
                        },
                        {
                            "internalType": "uint256",
                            "name": "votes",
                            "type": "uint256"
                        }
                    ],
                    "internalType": "struct Election.Candidate[]",
                    "name": "",
                    "type": "tuple[]"
                }
            ],
            "payable": false,
            "stateMutability": "view",
            "type": "function"
        },
        {
            "constant": true,
            "inputs": [],
            "name": "getElectionTitle",
            "outputs": [
                {
                    "internalType": "string",
                    "name": "",
                    "type": "string"
                }
            ],
            "payable": false,
            "stateMutability": "view",
            "type": "function"
        },
        {
            "constant": false,
            "inputs": [
                {
                    "internalType": "bytes32",
                    "name": "candidateId",
                    "type": "bytes32"
                }
            ],
            "name": "vote",
            "outputs": [],
            "payable": false,
            "stateMutability": "nonpayable",
            "type": "function"
        },
        {
            "constant": false,
            "inputs": [
                {
                    "internalType": "string",
                    "name": "name",
                    "type": "string"
                },
                {
                    "internalType": "string",
                    "name": "surname",
                    "type": "string"
                }
            ],
            "name": "addNewCandidate",
            "outputs": [],
            "payable": false,
            "stateMutability": "nonpayable",
            "type": "function"
        },
        {
            "constant": false,
            "inputs": [
                {
                    "internalType": "address",
                    "name": "voter",
                    "type": "address"
                }
            ],
            "name": "registerNewVoter",
            "outputs": [],
            "payable": false,
            "stateMutability": "nonpayable",
            "type": "function"
        }
    ],
    "bytecode": "0x60806040523480156200001157600080fd5b506040516200161938038062001619833981810160405262000037919081019062000572565b33600160006101000a81548173ffffffffffffffffffffffffffffffffffffffff021916908373ffffffffffffffffffffffffffffffffffffffff160217905550806004908051906020019062000090929190620003e0565b506200010d6040518060400160405280600581526020017f4d6172656b0000000000000000000000000000000000000000000000000000008152506040518060400160405280600781526020017f4b7261c59b6b6f00000000000000000000000000000000000000000000000000815250620002ad60201b60201c565b620001896040518060400160405280600781526020017f4d69636861c582000000000000000000000000000000000000000000000000008152506040518060400160405280600d81526020017f4b6f64c582756261c584736b6900000000000000000000000000000000000000815250620002ad60201b60201c565b620002056040518060400160405280600881526020017f4b7279737469616e0000000000000000000000000000000000000000000000008152506040518060400160405280600c81526020017f416e64727a656a6577736b690000000000000000000000000000000000000000815250620002ad60201b60201c565b620002816040518060400160405280600681526020017f4d616369656b00000000000000000000000000000000000000000000000000008152506040518060400160405280600c81526020017f4d6f737a637a79c584736b690000000000000000000000000000000000000000815250620002ad60201b60201c565b620002a673fbc79cfc69405b218799fef48615aefc444cb6996200038560201b60201c565b50620006f1565b60008282604051602001620002c4929190620005f8565b6040516020818303038152906040528051906020012090506000604051806080016040528085815260200184815260200183815260200160008152509080600181540180825580915050906001820390600052602060002090600402016000909192909190915060008201518160000190805190602001906200034992919062000467565b5060208201518160010190805190602001906200036892919062000467565b506040820151816002015560608201518160030155505050505050565b6001600260008373ffffffffffffffffffffffffffffffffffffffff1673ffffffffffffffffffffffffffffffffffffffff16815260200190815260200160002060006101000a81548160ff02191690831515021790555050565b828054600181600116156101000203166002900490600052602060002090601f016020900481019282601f106200042357805160ff191683800117855562000454565b8280016001018555821562000454579182015b828111156200045357825182559160200191906001019062000436565b5b509050620004639190620004ee565b5090565b828054600181600116156101000203166002900490600052602060002090601f016020900481019282601f10620004aa57805160ff1916838001178555620004db565b82800160010185558215620004db579182015b82811115620004da578251825591602001919060010190620004bd565b5b509050620004ea9190620004ee565b5090565b6200051391905b808211156200050f576000816000905550600101620004f5565b5090565b90565b600082601f8301126200052857600080fd5b81516200053f620005398262000661565b62000633565b915080825260208301602083018583830111156200055c57600080fd5b62000569838284620006aa565b50505092915050565b6000602082840312156200058557600080fd5b600082015167ffffffffffffffff811115620005a057600080fd5b620005ae8482850162000516565b91505092915050565b6000620005c4826200068e565b620005d0818562000699565b9350620005e2818560208601620006aa565b620005ed81620006e0565b840191505092915050565b60006040820190508181036000830152620006148185620005b7565b905081810360208301526200062a8184620005b7565b90509392505050565b6000604051905081810181811067ffffffffffffffff821117156200065757600080fd5b8060405250919050565b600067ffffffffffffffff8211156200067957600080fd5b601f19601f8301169050602081019050919050565b600081519050919050565b600082825260208201905092915050565b60005b83811015620006ca578082015181840152602081019050620006ad565b83811115620006da576000848401525b50505050565b6000601f19601f8301169050919050565b610f1880620007016000396000f3fe608060405234801561001057600080fd5b50600436106100885760003560e01c8063a69beaba1161005b578063a69beaba14610113578063e1246a781461012f578063e173730c14610162578063eb2119db1461018057610088565b806306a49fce1461008d5780633165d233146100ab5780634a386db3146100c7578063577c689a146100f7575b600080fd5b6100956101b0565b6040516100a29190610c38565b60405180910390f35b6100c560048036036100c09190810190610968565b610367565b005b6100e160048036036100dc9190810190610968565b6103c2565b6040516100ee9190610c5a565b60405180910390f35b610111600480360361010c91908101906109ba565b610418565b005b61012d60048036036101289190810190610991565b6104ea565b005b61014960048036036101449190810190610a26565b610570565b6040516101599493929190610cce565b60405180910390f35b61016a6106dd565b6040516101779190610c75565b60405180910390f35b61019a60048036036101959190810190610968565b61077f565b6040516101a79190610c5a565b60405180910390f35b60606000805480602002602001604051908101604052809291908181526020016000905b8282101561035e5783829060005260206000209060040201604051806080016040529081600082018054600181600116156101000203166002900480601f0160208091040260200160405190810160405280929190818152602001828054600181600116156101000203166002900480156102905780601f1061026557610100808354040283529160200191610290565b820191906000526020600020905b81548152906001019060200180831161027357829003601f168201915b50505050508152602001600182018054600181600116156101000203166002900480601f0160208091040260200160405190810160405280929190818152602001828054600181600116156101000203166002900480156103325780601f1061030757610100808354040283529160200191610332565b820191906000526020600020905b81548152906001019060200180831161031557829003601f168201915b5050505050815260200160028201548152602001600382015481525050815260200190600101906101d4565b50505050905090565b6001600260008373ffffffffffffffffffffffffffffffffffffffff1673ffffffffffffffffffffffffffffffffffffffff16815260200190815260200160002060006101000a81548160ff02191690831515021790555050565b6000600360008373ffffffffffffffffffffffffffffffffffffffff1673ffffffffffffffffffffffffffffffffffffffff16815260200190815260200160002060009054906101000a900460ff169050919050565b6000828260405160200161042d929190610c97565b6040516020818303038152906040528051906020012090506000604051806080016040528085815260200184815260200183815260200160008152509080600181540180825580915050906001820390600052602060002090600402016000909192909190915060008201518160000190805190602001906104b0929190610830565b5060208201518160010190805190602001906104cd929190610830565b506040820151816002015560608201518160030155505050505050565b60008090505b60008054905081101561056357816000828154811061050b57fe5b9060005260206000209060040201600201541415610556576000818154811061053057fe5b906000526020600020906004020160030160008154809291906001019190505550610563565b80806001019150506104f0565b5061056d336107d5565b50565b6000818154811061057d57fe5b9060005260206000209060040201600091509050806000018054600181600116156101000203166002900480601f0160208091040260200160405190810160405280929190818152602001828054600181600116156101000203166002900480156106295780601f106105fe57610100808354040283529160200191610629565b820191906000526020600020905b81548152906001019060200180831161060c57829003601f168201915b505050505090806001018054600181600116156101000203166002900480601f0160208091040260200160405190810160405280929190818152602001828054600181600116156101000203166002900480156106c75780601f1061069c576101008083540402835291602001916106c7565b820191906000526020600020905b8154815290600101906020018083116106aa57829003601f168201915b5050505050908060020154908060030154905084565b606060048054600181600116156101000203166002900480601f0160208091040260200160405190810160405280929190818152602001828054600181600116156101000203166002900480156107755780601f1061074a57610100808354040283529160200191610775565b820191906000526020600020905b81548152906001019060200180831161075857829003601f168201915b5050505050905090565b6000600260008373ffffffffffffffffffffffffffffffffffffffff1673ffffffffffffffffffffffffffffffffffffffff16815260200190815260200160002060009054906101000a900460ff169050919050565b6001600360008373ffffffffffffffffffffffffffffffffffffffff1673ffffffffffffffffffffffffffffffffffffffff16815260200190815260200160002060006101000a81548160ff02191690831515021790555050565b828054600181600116156101000203166002900490600052602060002090601f016020900481019282601f1061087157805160ff191683800117855561089f565b8280016001018555821561089f579182015b8281111561089e578251825591602001919060010190610883565b5b5090506108ac91906108b0565b5090565b6108d291905b808211156108ce5760008160009055506001016108b6565b5090565b90565b6000813590506108e481610e90565b92915050565b6000813590506108f981610ea7565b92915050565b600082601f83011261091057600080fd5b813561092361091e82610d4e565b610d21565b9150808252602083016020830185838301111561093f57600080fd5b61094a838284610e3d565b50505092915050565b60008135905061096281610ebe565b92915050565b60006020828403121561097a57600080fd5b6000610988848285016108d5565b91505092915050565b6000602082840312156109a357600080fd5b60006109b1848285016108ea565b91505092915050565b600080604083850312156109cd57600080fd5b600083013567ffffffffffffffff8111156109e757600080fd5b6109f3858286016108ff565b925050602083013567ffffffffffffffff811115610a1057600080fd5b610a1c858286016108ff565b9150509250929050565b600060208284031215610a3857600080fd5b6000610a4684828501610953565b91505092915050565b6000610a5b8383610bb0565b905092915050565b6000610a6e82610d8a565b610a788185610db8565b935083602082028501610a8a85610d7a565b8060005b85811015610ac65784840389528151610aa78582610a4f565b9450610ab283610dab565b925060208a01995050600181019050610a8e565b50829750879550505050505092915050565b610ae181610dfd565b82525050565b610af081610e09565b82525050565b610aff81610e09565b82525050565b6000610b1082610da0565b610b1a8185610dda565b9350610b2a818560208601610e4c565b610b3381610e7f565b840191505092915050565b6000610b4982610d95565b610b538185610dc9565b9350610b63818560208601610e4c565b610b6c81610e7f565b840191505092915050565b6000610b8282610d95565b610b8c8185610dda565b9350610b9c818560208601610e4c565b610ba581610e7f565b840191505092915050565b60006080830160008301518482036000860152610bcd8282610b3e565b91505060208301518482036020860152610be78282610b3e565b9150506040830151610bfc6040860182610ae7565b506060830151610c0f6060860182610c1a565b508091505092915050565b610c2381610e33565b82525050565b610c3281610e33565b82525050565b60006020820190508181036000830152610c528184610a63565b905092915050565b6000602082019050610c6f6000830184610ad8565b92915050565b60006020820190508181036000830152610c8f8184610b05565b905092915050565b60006040820190508181036000830152610cb18185610b05565b90508181036020830152610cc58184610b05565b90509392505050565b60006080820190508181036000830152610ce88187610b77565b90508181036020830152610cfc8186610b77565b9050610d0b6040830185610af6565b610d186060830184610c29565b95945050505050565b6000604051905081810181811067ffffffffffffffff82111715610d4457600080fd5b8060405250919050565b600067ffffffffffffffff821115610d6557600080fd5b601f19601f8301169050602081019050919050565b6000819050602082019050919050565b600081519050919050565b600081519050919050565b600081519050919050565b6000602082019050919050565b600082825260208201905092915050565b600082825260208201905092915050565b600082825260208201905092915050565b6000610df682610e13565b9050919050565b60008115159050919050565b6000819050919050565b600073ffffffffffffffffffffffffffffffffffffffff82169050919050565b6000819050919050565b82818337600083830152505050565b60005b83811015610e6a578082015181840152602081019050610e4f565b83811115610e79576000848401525b50505050565b6000601f19601f8301169050919050565b610e9981610deb565b8114610ea457600080fd5b50565b610eb081610e09565b8114610ebb57600080fd5b50565b610ec781610e33565b8114610ed257600080fd5b5056fea365627a7a7231582040e6c417c900ba2cbd93b1f023a2b52e1b67f3c36e5a1d048da021c6c30164f16c6578706572696d656e74616cf564736f6c63430005100040",
    "source": "pragma solidity >0.5.1;\n\n// TODO: Check if I can delete it\npragma experimental ABIEncoderV2;\n\ncontract Election {\n\n  struct Candidate {\n    string name;\n    string surname;\n    bytes32 id;\n    uint votes;\n  }\n\n  function isVoterRegistered(address voter) view public returns(bool) {\n    return m_reqisteredVoters[voter];\n  }\n\n  function hasVoterAlreadyVoted(address voter) view public returns(bool) {\n    return m_registeredVotersWhoVoted[voter];\n  }\n\n  function getCandidates() public view registeredVoterOnly returns (Candidate[] memory) {\n    return  m_candidates;\n  }\n\n  function getElectionTitle() public view registeredVoterOnly returns(string memory) {\n    return  m_electionTitle;\n  }\n\n  function vote(bytes32 candidateId) public   registeredVoterOnly voterDidNotVoteOnly {\n      //TODO: Can we do it differently\n      for (uint i = 0; i <  m_candidates.length; i++) {\n        if ( m_candidates[i].id == candidateId) {\n           m_candidates[i].votes++;\n          break;\n        }\n      }\n      //TODO: What should happen when if the proper candidate was not found.\n      voterVoted(msg.sender);\n  }\n\n Candidate[] public m_candidates;\n address private m_owner;\n mapping(address => bool) m_reqisteredVoters;\n mapping(address => bool) m_registeredVotersWhoVoted;\n string m_electionTitle;\n\n\n modifier registeredVoterOnly {\n  //  require(m_reqisteredVoters[msg.sender], \"You are not allowed to participate in the voring as you public key has not been registered\");\n   _;\n }\n\n modifier voterDidNotVoteOnly {\n  //  require(!m_registeredVotersWhoVoted[msg.sender], \"You have already voted\");\n   _;\n }\n\n  modifier ownerOnly {\n    // require(msg.sender == m_owner, \"Only contract owner can call this method`\");\n    _;\n  }\n\n  constructor(string memory electionTitle) public {\n    m_owner = msg.sender;\n    m_electionTitle = electionTitle;\n\n    // Substituted with data from database in the compilatin process.\naddNewCandidate(\"Marek\",\"Kraśko\");\naddNewCandidate(\"Michał\",\"Kodłubański\");\naddNewCandidate(\"Krystian\",\"Andrzejewski\");\naddNewCandidate(\"Maciek\",\"Moszczyński\");\n\n    // Substitute with data from database in the compilatin process.\n    registerNewVoter(0xFbC79CFc69405B218799feF48615aEfc444cB699);\n  }\n\n  //TODO: Change to addCandidate\n  function addNewCandidate(string memory name, string memory surname) public ownerOnly {\n    bytes32 id = keccak256(abi.encode(name, surname));\n     m_candidates.push(Candidate(name, surname, id, 0));\n  }\n\n  //TODO: Change to registerVoter\n  function registerNewVoter(address voter) public ownerOnly {\n     m_reqisteredVoters[voter] = true;\n  }\n\n  function voterVoted(address voter) private {\n     m_registeredVotersWhoVoted[voter] = true;\n  }\n\n}",
    "sourcePath": "/Users/mroczekj/Desktop/project/e-voting/administrator-panel/ui/contracts/Election.sol",
    "compiler": {
        "name": "solc",
        "version": "0.5.16+commit.9c3226ce.Emscripten.clang"
    },
    "schemaVersion": "3.2.0",
    "updatedAt": "2020-06-18T22:45:23.927Z",
    "networkType": "ethereum",
    "devdoc": {
        "methods": {}
    },
    "userdoc": {
        "methods": {}
    }
}